:020000040000FA
:1000000001288312031386018316860103178901D1
:100010008312031303100330A5000330A4008130C2
:1000200086005A200730A3008030A6000130A700C8
:10003000A60CA70D2608270486005A20A30B182813
:10004000A40B12282328A301A401A601A701A8013B
:100050000230A3000230A400813086005A20013013
:10006000A6008030A700C330A800A60DA70C260864
:100070002704280486005A20A30B35285520A61DE6
:100080003528183086005A20A60CA70D3C30A80051
:1000900026082704280486005A20A40B4428FF3091
:1000A00086005A20A50B23280B28E730A800013032
:1000B000A30008000A30A2006430A100FA30A000BA
:1000C0000000A00B6028A10B5E28A20B5C28080092
:0400D00000340034C4
:02400E00D528B3
:02401000FF3F70
:00000001FF
